:10000000B9EF00F0EA6A0E0EE96EEF500DE0060E51
:10001000016E006A002EFED7012EFBD77B0E006E0C
:10002000002EFED7EF2EF3D71200030E0E5E09E36B
:10003000EA6A0E0EE96EEF5004E001D000D0EF2E18
:10004000FDD7DAEF00F08E0E006E0EC001F00DC08D
:1000500002F0036A015209E102C001F0026A080ECF
:10006000005E015202E1006A08D0D89001BE04D0BF
:10007000023601360006F9D7019EF7EF00F00D5069
:10008000D8B471D0006E1150D8B46DD0002604E3FE
:10009000810E002668E204D07F0E005E64E363E018
:1000A0000EC015F01250151A0E8E128E105014023A
:1000B000F4CF17F00F501302F4CF03F0F3CF16F084
:1000C0001402F3501726F4501622000E032210508B
:1000D0001302F3501726F4501622000E026A032270
:1000E00002220E501402F3501626F4500322000E82
:1000F00002220E501302F3500326F4500222000E87
:10010000016A012210501202F3501626F450032205
:10011000000E022201220F501202F3500326F45067
:100120000222000E01220E501202F3500226F45059
:100130000122002A01BE05D01636033602360136EA
:100140000006000E16AE0AD0032A02220122015038
:1001500005E1025003E1035001E1002A15BE018EC2
:1001600015AE019E04D0006A016A026A036A0EEFAE
:1001700001F0F86AD09EC180C182C184C196070E89
:10018000B46ED26A850ECD6E800ED56EC00EF212A0
:10019000086A076A066A056A0C6A0B6A0A6A096ACB
:1001A000640E0E6E2FDF93908A80020E0D6EF90E94
:1001B0000E6E3BD70D2EFBD793908A90938881A823
:1001C00005D093928A8293948A94F8D7CF6ACE6AA4
:1001D000938881B805D093928A8293948A94F8D7B1
:1001E000CE50CFCF03F00D6ECFCF0EF02CD703C083
:1001F00008F002C007F001C006F000C005F008C01A
:1002000010F007C00FF006C00EF005C00DF0146A24
:10021000136A080E126E830E116E31D703C00CF0F4
:1002200002C00BF001C00AF000C009F0020E0D6E12
:0E023000960E0E6EE7DE0D2EFBD7B5D703003F
:020000040030CA
:0E00000000220C0E000081000FC00FE00F4028
:00000001FF
;PIC18F458
;CRC=723A  CREATED="12-mars-18 09:42"
